{
  "contractName": "MemoryArray",
  "abi": [
    {
      "inputs": [],
      "stateMutability": "nonpayable",
      "type": "constructor"
    },
    {
      "inputs": [
        {
          "internalType": "string",
          "name": "name",
          "type": "string"
        },
        {
          "internalType": "address",
          "name": "_owner",
          "type": "address"
        }
      ],
      "name": "addItem",
      "outputs": [],
      "stateMutability": "nonpayable",
      "type": "function"
    },
    {
      "inputs": [
        {
          "internalType": "address",
          "name": "_owner",
          "type": "address"
        }
      ],
      "name": "getItemsByOwner",
      "outputs": [
        {
          "components": [
            {
              "internalType": "uint16",
              "name": "ID",
              "type": "uint16"
            },
            {
              "internalType": "string",
              "name": "name",
              "type": "string"
            },
            {
              "internalType": "address",
              "name": "owner",
              "type": "address"
            }
          ],
          "internalType": "struct MemoryArray.Item[]",
          "name": "",
          "type": "tuple[]"
        }
      ],
      "stateMutability": "view",
      "type": "function",
      "constant": true
    }
  ],
  "bytecode": "0x60806040526001600260006101000a81548161ffff021916908361ffff16021790555034801561002e57600080fd5b50336000806101000a81548173ffffffffffffffffffffffffffffffffffffffff021916908373ffffffffffffffffffffffffffffffffffffffff160217905550610cf58061007e6000396000f3fe608060405234801561001057600080fd5b50600436106100365760003560e01c80632c67a8e51461003b5780635386c6951461006b575b600080fd5b610055600480360381019061005091906105a1565b610087565b604051610062919061079c565b60405180910390f35b610085600480360381019061008091906108f3565b61034b565b005b60606000600360008473ffffffffffffffffffffffffffffffffffffffff1673ffffffffffffffffffffffffffffffffffffffff16815260200190815260200160002060009054906101000a900461ffff1661ffff1667ffffffffffffffff8111156100f6576100f56107c8565b5b60405190808252806020026020018201604052801561012f57816020015b61011c6104f4565b8152602001906001900390816101145790505b5090506000805b6001805490508161ffff161015610340578473ffffffffffffffffffffffffffffffffffffffff1660018261ffff16815481106101765761017561094f565b5b906000526020600020906003020160020160009054906101000a900473ffffffffffffffffffffffffffffffffffffffff1673ffffffffffffffffffffffffffffffffffffffff160361032d5760018161ffff16815481106101db576101da61094f565b5b90600052602060002090600302016040518060600160405290816000820160009054906101000a900461ffff1661ffff1661ffff168152602001600182018054610224906109ad565b80601f0160208091040260200160405190810160405280929190818152602001828054610250906109ad565b801561029d5780601f106102725761010080835404028352916020019161029d565b820191906000526020600020905b81548152906001019060200180831161028057829003601f168201915b505050505081526020016002820160009054906101000a900473ffffffffffffffffffffffffffffffffffffffff1673ffffffffffffffffffffffffffffffffffffffff1673ffffffffffffffffffffffffffffffffffffffff1681525050838361ffff16815181106103135761031261094f565b5b6020026020010181905250818061032990610a0d565b9250505b808061033890610a0d565b915050610136565b508192505050919050565b60016040518060600160405280600260009054906101000a900461ffff1661ffff1681526020018481526020018373ffffffffffffffffffffffffffffffffffffffff16815250908060018154018082558091505060019003906000526020600020906003020160009091909190915060008201518160000160006101000a81548161ffff021916908361ffff16021790555060208201518160010190816103f39190610bed565b5060408201518160020160006101000a81548173ffffffffffffffffffffffffffffffffffffffff021916908373ffffffffffffffffffffffffffffffffffffffff1602179055505050600360008273ffffffffffffffffffffffffffffffffffffffff1673ffffffffffffffffffffffffffffffffffffffff168152602001908152602001600020600081819054906101000a900461ffff168092919061049a90610a0d565b91906101000a81548161ffff021916908361ffff160217905550506002600081819054906101000a900461ffff16809291906104d590610a0d565b91906101000a81548161ffff021916908361ffff160217905550505050565b6040518060600160405280600061ffff16815260200160608152602001600073ffffffffffffffffffffffffffffffffffffffff1681525090565b6000604051905090565b600080fd5b600080fd5b600073ffffffffffffffffffffffffffffffffffffffff82169050919050565b600061056e82610543565b9050919050565b61057e81610563565b811461058957600080fd5b50565b60008135905061059b81610575565b92915050565b6000602082840312156105b7576105b6610539565b5b60006105c58482850161058c565b91505092915050565b600081519050919050565b600082825260208201905092915050565b6000819050602082019050919050565b600061ffff82169050919050565b610611816105fa565b82525050565b600081519050919050565b600082825260208201905092915050565b60005b83811015610651578082015181840152602081019050610636565b60008484015250505050565b6000601f19601f8301169050919050565b600061067982610617565b6106838185610622565b9350610693818560208601610633565b61069c8161065d565b840191505092915050565b6106b081610563565b82525050565b60006060830160008301516106ce6000860182610608565b50602083015184820360208601526106e6828261066e565b91505060408301516106fb60408601826106a7565b508091505092915050565b600061071283836106b6565b905092915050565b6000602082019050919050565b6000610732826105ce565b61073c81856105d9565b93508360208202850161074e856105ea565b8060005b8581101561078a578484038952815161076b8582610706565b94506107768361071a565b925060208a01995050600181019050610752565b50829750879550505050505092915050565b600060208201905081810360008301526107b68184610727565b905092915050565b600080fd5b600080fd5b7f4e487b7100000000000000000000000000000000000000000000000000000000600052604160045260246000fd5b6108008261065d565b810181811067ffffffffffffffff8211171561081f5761081e6107c8565b5b80604052505050565b600061083261052f565b905061083e82826107f7565b919050565b600067ffffffffffffffff82111561085e5761085d6107c8565b5b6108678261065d565b9050602081019050919050565b82818337600083830152505050565b600061089661089184610843565b610828565b9050828152602081018484840111156108b2576108b16107c3565b5b6108bd848285610874565b509392505050565b600082601f8301126108da576108d96107be565b5b81356108ea848260208601610883565b91505092915050565b6000806040838503121561090a57610909610539565b5b600083013567ffffffffffffffff8111156109285761092761053e565b5b610934858286016108c5565b92505060206109458582860161058c565b9150509250929050565b7f4e487b7100000000000000000000000000000000000000000000000000000000600052603260045260246000fd5b7f4e487b7100000000000000000000000000000000000000000000000000000000600052602260045260246000fd5b600060028204905060018216806109c557607f821691505b6020821081036109d8576109d761097e565b5b50919050565b7f4e487b7100000000000000000000000000000000000000000000000000000000600052601160045260246000fd5b6000610a18826105fa565b915061ffff8203610a2c57610a2b6109de565b5b600182019050919050565b60008190508160005260206000209050919050565b60006020601f8301049050919050565b600082821b905092915050565b600060088302610a997fffffffffffffffffffffffffffffffffffffffffffffffffffffffffffffffff82610a5c565b610aa38683610a5c565b95508019841693508086168417925050509392505050565b6000819050919050565b6000819050919050565b6000610aea610ae5610ae084610abb565b610ac5565b610abb565b9050919050565b6000819050919050565b610b0483610acf565b610b18610b1082610af1565b848454610a69565b825550505050565b600090565b610b2d610b20565b610b38818484610afb565b505050565b5b81811015610b5c57610b51600082610b25565b600181019050610b3e565b5050565b601f821115610ba157610b7281610a37565b610b7b84610a4c565b81016020851015610b8a578190505b610b9e610b9685610a4c565b830182610b3d565b50505b505050565b600082821c905092915050565b6000610bc460001984600802610ba6565b1980831691505092915050565b6000610bdd8383610bb3565b9150826002028217905092915050565b610bf682610617565b67ffffffffffffffff811115610c0f57610c0e6107c8565b5b610c1982546109ad565b610c24828285610b60565b600060209050601f831160018114610c575760008415610c45578287015190505b610c4f8582610bd1565b865550610cb7565b601f198416610c6586610a37565b60005b82811015610c8d57848901518255600182019150602085019450602081019050610c68565b86831015610caa5784890151610ca6601f891682610bb3565b8355505b6001600288020188555050505b50505050505056fea264697066735822122069975b8cd91480f354677588c0ec09cf9a7ba97d7e7e2968abd00fe02f5fa81e64736f6c63430008130033",
  "immutableReferences": {},
  "source": "// SPDX-License-Identifier: MIT\npragma solidity 0.8.19;\n\n\ncontract MemoryArray {\n    constructor() {\n        owner = msg.sender;\n    }\n    \n    address owner;\n    \n    struct Item {\n        uint16 ID;\n        string name;\n        address owner;\n    }\n\n    Item[] items;\n    uint16 currentID = 1;\n    mapping(address => uint16) addressItemCount;\n\n    function addItem(string memory name, address _owner) public {\n        items.push(Item(currentID, name, _owner));\n        addressItemCount[_owner]++;\n        currentID++;\n    }\n\n    function getItemsByOwner(address _owner) public view returns(Item[] memory) {\n        Item[] memory _items = new Item[](addressItemCount[_owner]);\n        uint16 counter = 0;\n        for(uint16 i = 0;i < items.length;i++) {\n            if(items[i].owner == _owner)\n            {\n                _items[counter] = items[i];\n                counter++;\n            }\n        }\n        return _items;\n    }\n\n}\n",
  "sourcePath": "/Users/adammajewski/Desktop/address_book/contracts/MemoryArray.sol",
  "compiler": {
    "name": "solc",
    "version": "0.8.19+commit.7dd6d404.Emscripten.clang"
  },
  "schemaVersion": "3.4.14",
  "updatedAt": "2023-06-30T14:00:06.862Z",
  "networkType": "ethereum",
  "devdoc": {
    "kind": "dev",
    "methods": {},
    "version": 1
  },
  "userdoc": {
    "kind": "user",
    "methods": {},
    "version": 1
  }
}